{
  "contractName": "Federation",
  "abi": [
    {
      "anonymous": false,
      "inputs": [
        {
          "indexed": false,
          "internalType": "bytes32",
          "name": "_id",
          "type": "bytes32"
        },
        {
          "indexed": false,
          "internalType": "uint256",
          "name": "max_bid_index",
          "type": "uint256"
        }
      ],
      "name": "NewBid",
      "type": "event"
    },
    {
      "anonymous": false,
      "inputs": [
        {
          "indexed": false,
          "internalType": "address",
          "name": "operator",
          "type": "address"
        },
        {
          "indexed": false,
          "internalType": "bytes32",
          "name": "name",
          "type": "bytes32"
        }
      ],
      "name": "OperatorRegistered",
      "type": "event"
    },
    {
      "anonymous": false,
      "inputs": [
        {
          "indexed": false,
          "internalType": "bytes32",
          "name": "requirements",
          "type": "bytes32"
        },
        {
          "indexed": false,
          "internalType": "bytes32",
          "name": "id",
          "type": "bytes32"
        }
      ],
      "name": "ServiceAnnouncement",
      "type": "event"
    },
    {
      "anonymous": false,
      "inputs": [
        {
          "indexed": false,
          "internalType": "bytes32",
          "name": "_id",
          "type": "bytes32"
        }
      ],
      "name": "ServiceAnnouncementClosed",
      "type": "event"
    },
    {
      "anonymous": false,
      "inputs": [
        {
          "indexed": false,
          "internalType": "bytes32",
          "name": "_id",
          "type": "bytes32"
        }
      ],
      "name": "ServiceDeployedEvent",
      "type": "event"
    },
    {
      "constant": true,
      "inputs": [
        {
          "internalType": "bytes32",
          "name": "",
          "type": "bytes32"
        }
      ],
      "name": "bidCount",
      "outputs": [
        {
          "internalType": "uint256",
          "name": "",
          "type": "uint256"
        }
      ],
      "payable": false,
      "stateMutability": "view",
      "type": "function"
    },
    {
      "constant": true,
      "inputs": [
        {
          "internalType": "bytes32",
          "name": "",
          "type": "bytes32"
        },
        {
          "internalType": "uint256",
          "name": "",
          "type": "uint256"
        }
      ],
      "name": "bids",
      "outputs": [
        {
          "internalType": "address",
          "name": "bid_address",
          "type": "address"
        },
        {
          "internalType": "uint256",
          "name": "price",
          "type": "uint256"
        },
        {
          "internalType": "bytes32",
          "name": "endpoint_provider",
          "type": "bytes32"
        }
      ],
      "payable": false,
      "stateMutability": "view",
      "type": "function"
    },
    {
      "constant": true,
      "inputs": [
        {
          "internalType": "bytes32",
          "name": "",
          "type": "bytes32"
        }
      ],
      "name": "endpoints",
      "outputs": [
        {
          "internalType": "bytes32",
          "name": "uuid_1",
          "type": "bytes32"
        },
        {
          "internalType": "bytes32",
          "name": "uuid_2",
          "type": "bytes32"
        },
        {
          "internalType": "bytes32",
          "name": "name",
          "type": "bytes32"
        },
        {
          "internalType": "bytes32",
          "name": "net_type",
          "type": "bytes32"
        },
        {
          "internalType": "bool",
          "name": "is_mgmt",
          "type": "bool"
        }
      ],
      "payable": false,
      "stateMutability": "view",
      "type": "function"
    },
    {
      "constant": true,
      "inputs": [
        {
          "internalType": "address",
          "name": "",
          "type": "address"
        }
      ],
      "name": "operator",
      "outputs": [
        {
          "internalType": "bytes32",
          "name": "name",
          "type": "bytes32"
        },
        {
          "internalType": "bool",
          "name": "registered",
          "type": "bool"
        }
      ],
      "payable": false,
      "stateMutability": "view",
      "type": "function"
    },
    {
      "constant": true,
      "inputs": [
        {
          "internalType": "bytes32",
          "name": "",
          "type": "bytes32"
        }
      ],
      "name": "service",
      "outputs": [
        {
          "internalType": "address",
          "name": "creator",
          "type": "address"
        },
        {
          "internalType": "bytes32",
          "name": "endpoint_consumer",
          "type": "bytes32"
        },
        {
          "internalType": "bytes32",
          "name": "id",
          "type": "bytes32"
        },
        {
          "internalType": "address",
          "name": "provider",
          "type": "address"
        },
        {
          "internalType": "bytes32",
          "name": "endpoint_provider",
          "type": "bytes32"
        },
        {
          "internalType": "bytes32",
          "name": "req_info",
          "type": "bytes32"
        },
        {
          "internalType": "enum Federation.ServiceState",
          "name": "state",
          "type": "uint8"
        }
      ],
      "payable": false,
      "stateMutability": "view",
      "type": "function"
    },
    {
      "constant": false,
      "inputs": [
        {
          "internalType": "bytes32",
          "name": "name",
          "type": "bytes32"
        }
      ],
      "name": "addOperator",
      "outputs": [],
      "payable": false,
      "stateMutability": "nonpayable",
      "type": "function"
    },
    {
      "constant": true,
      "inputs": [
        {
          "internalType": "address",
          "name": "op_address",
          "type": "address"
        }
      ],
      "name": "getOperatorInfo",
      "outputs": [
        {
          "internalType": "bytes32",
          "name": "name",
          "type": "bytes32"
        }
      ],
      "payable": false,
      "stateMutability": "view",
      "type": "function"
    },
    {
      "constant": false,
      "inputs": [
        {
          "internalType": "bytes32",
          "name": "_requirements",
          "type": "bytes32"
        },
        {
          "internalType": "bytes32",
          "name": "_id",
          "type": "bytes32"
        },
        {
          "internalType": "bytes32",
          "name": "endpoint_uuid_1",
          "type": "bytes32"
        },
        {
          "internalType": "bytes32",
          "name": "endpoint_uuid_2",
          "type": "bytes32"
        },
        {
          "internalType": "bytes32",
          "name": "endpoint_name",
          "type": "bytes32"
        },
        {
          "internalType": "bytes32",
          "name": "endpoint_net_type",
          "type": "bytes32"
        },
        {
          "internalType": "bool",
          "name": "endpoint_is_mgmt",
          "type": "bool"
        }
      ],
      "name": "AnnounceService",
      "outputs": [
        {
          "internalType": "enum Federation.ServiceState",
          "name": "",
          "type": "uint8"
        }
      ],
      "payable": false,
      "stateMutability": "nonpayable",
      "type": "function"
    },
    {
      "constant": false,
      "inputs": [
        {
          "internalType": "address",
          "name": "call_address",
          "type": "address"
        },
        {
          "internalType": "bool",
          "name": "provider",
          "type": "bool"
        },
        {
          "internalType": "bytes32",
          "name": "_id",
          "type": "bytes32"
        },
        {
          "internalType": "bytes32",
          "name": "endpoint_uuid_1",
          "type": "bytes32"
        },
        {
          "internalType": "bytes32",
          "name": "endpoint_uuid_2",
          "type": "bytes32"
        },
        {
          "internalType": "bytes32",
          "name": "endpoint_name",
          "type": "bytes32"
        },
        {
          "internalType": "bytes32",
          "name": "endpoint_net_type",
          "type": "bytes32"
        },
        {
          "internalType": "bool",
          "name": "endpoint_is_mgmt",
          "type": "bool"
        }
      ],
      "name": "UpdateEndpoint",
      "outputs": [
        {
          "internalType": "bool",
          "name": "",
          "type": "bool"
        }
      ],
      "payable": false,
      "stateMutability": "nonpayable",
      "type": "function"
    },
    {
      "constant": true,
      "inputs": [
        {
          "internalType": "bytes32",
          "name": "_id",
          "type": "bytes32"
        }
      ],
      "name": "GetServiceState",
      "outputs": [
        {
          "internalType": "enum Federation.ServiceState",
          "name": "",
          "type": "uint8"
        }
      ],
      "payable": false,
      "stateMutability": "view",
      "type": "function"
    },
    {
      "constant": true,
      "inputs": [
        {
          "internalType": "bytes32",
          "name": "_id",
          "type": "bytes32"
        },
        {
          "internalType": "bool",
          "name": "provider",
          "type": "bool"
        },
        {
          "internalType": "address",
          "name": "call_address",
          "type": "address"
        }
      ],
      "name": "GetServiceInfo",
      "outputs": [
        {
          "internalType": "bytes32",
          "name": "",
          "type": "bytes32"
        },
        {
          "internalType": "bytes32",
          "name": "",
          "type": "bytes32"
        },
        {
          "internalType": "bytes32",
          "name": "",
          "type": "bytes32"
        },
        {
          "internalType": "bytes32",
          "name": "",
          "type": "bytes32"
        },
        {
          "internalType": "bytes32",
          "name": "",
          "type": "bytes32"
        },
        {
          "internalType": "bytes32",
          "name": "",
          "type": "bytes32"
        },
        {
          "internalType": "bool",
          "name": "",
          "type": "bool"
        }
      ],
      "payable": false,
      "stateMutability": "view",
      "type": "function"
    },
    {
      "constant": true,
      "inputs": [
        {
          "internalType": "bytes32",
          "name": "endpoint_id",
          "type": "bytes32"
        },
        {
          "internalType": "address",
          "name": "call_address",
          "type": "address"
        }
      ],
      "name": "GetEndpoint",
      "outputs": [
        {
          "internalType": "bytes32",
          "name": "",
          "type": "bytes32"
        },
        {
          "internalType": "bytes32",
          "name": "",
          "type": "bytes32"
        },
        {
          "internalType": "bytes32",
          "name": "",
          "type": "bytes32"
        },
        {
          "internalType": "bytes32",
          "name": "",
          "type": "bytes32"
        },
        {
          "internalType": "bool",
          "name": "",
          "type": "bool"
        }
      ],
      "payable": false,
      "stateMutability": "view",
      "type": "function"
    },
    {
      "constant": false,
      "inputs": [
        {
          "internalType": "bytes32",
          "name": "_id",
          "type": "bytes32"
        },
        {
          "internalType": "uint32",
          "name": "_price",
          "type": "uint32"
        },
        {
          "internalType": "bytes32",
          "name": "endpoint_uuid_1",
          "type": "bytes32"
        },
        {
          "internalType": "bytes32",
          "name": "endpoint_uuid_2",
          "type": "bytes32"
        },
        {
          "internalType": "bytes32",
          "name": "endpoint_name",
          "type": "bytes32"
        },
        {
          "internalType": "bytes32",
          "name": "endpoint_net_type",
          "type": "bytes32"
        },
        {
          "internalType": "bool",
          "name": "endpoint_is_mgmt",
          "type": "bool"
        }
      ],
      "name": "PlaceBid",
      "outputs": [
        {
          "internalType": "uint256",
          "name": "",
          "type": "uint256"
        }
      ],
      "payable": false,
      "stateMutability": "nonpayable",
      "type": "function"
    },
    {
      "constant": true,
      "inputs": [
        {
          "internalType": "bytes32",
          "name": "_id",
          "type": "bytes32"
        },
        {
          "internalType": "address",
          "name": "_creator",
          "type": "address"
        }
      ],
      "name": "GetBidCount",
      "outputs": [
        {
          "internalType": "uint256",
          "name": "",
          "type": "uint256"
        }
      ],
      "payable": false,
      "stateMutability": "view",
      "type": "function"
    },
    {
      "constant": true,
      "inputs": [
        {
          "internalType": "bytes32",
          "name": "_id",
          "type": "bytes32"
        },
        {
          "internalType": "uint256",
          "name": "bider_index",
          "type": "uint256"
        },
        {
          "internalType": "address",
          "name": "_creator",
          "type": "address"
        }
      ],
      "name": "GetBid",
      "outputs": [
        {
          "internalType": "address",
          "name": "",
          "type": "address"
        },
        {
          "internalType": "uint256",
          "name": "",
          "type": "uint256"
        },
        {
          "internalType": "uint256",
          "name": "",
          "type": "uint256"
        },
        {
          "internalType": "bytes32",
          "name": "",
          "type": "bytes32"
        }
      ],
      "payable": false,
      "stateMutability": "view",
      "type": "function"
    },
    {
      "constant": false,
      "inputs": [
        {
          "internalType": "bytes32",
          "name": "_id",
          "type": "bytes32"
        },
        {
          "internalType": "uint256",
          "name": "bider_index",
          "type": "uint256"
        }
      ],
      "name": "ChooseProvider",
      "outputs": [
        {
          "internalType": "bool",
          "name": "",
          "type": "bool"
        }
      ],
      "payable": false,
      "stateMutability": "nonpayable",
      "type": "function"
    },
    {
      "constant": true,
      "inputs": [
        {
          "internalType": "bytes32",
          "name": "_id",
          "type": "bytes32"
        },
        {
          "internalType": "address",
          "name": "_winner",
          "type": "address"
        }
      ],
      "name": "isWinner",
      "outputs": [
        {
          "internalType": "bool",
          "name": "",
          "type": "bool"
        }
      ],
      "payable": false,
      "stateMutability": "view",
      "type": "function"
    },
    {
      "constant": false,
      "inputs": [
        {
          "internalType": "bytes32",
          "name": "info",
          "type": "bytes32"
        },
        {
          "internalType": "bytes32",
          "name": "_id",
          "type": "bytes32"
        }
      ],
      "name": "ServiceDeployed",
      "outputs": [
        {
          "internalType": "bool",
          "name": "",
          "type": "bool"
        }
      ],
      "payable": false,
      "stateMutability": "nonpayable",
      "type": "function"
    }
  ],
  "bytecode": "0x608060405234801561001057600080fd5b5061313f806100206000396000f3fe608060405234801561001057600080fd5b50600436106101165760003560e01c80639a307391116100a2578063bef7b4df11610071578063bef7b4df14610389578063c1c2aed1146103b9578063ce646b13146103e9578063f7e65b1c1461041f578063fc985f991461045157610116565b80639a307391146102c45780639cc19f5b146102f5578063a255916b14610325578063a883ad801461035557610116565b806357c91f5f116100e957806357c91f5f146101e55780635fc9bd92146102155780636f78c7cd14610248578063709321d3146102645780638610372c1461029457610116565b806302b34f1f1461011b57806317d42ff71461015157806327d9ab5d146101855780633ae10dce146101b5575b600080fd5b610135600480360361013091908101906120dc565b610481565b6040516101489796959493929190612a9f565b60405180910390f35b61016b60048036036101669190810190612105565b610510565b60405161017c959493929190612c12565b60405180910390f35b61019f600480360361019a9190810190612001565b61064d565b6040516101ac9190612ba5565b60405180910390f35b6101cf60048036036101ca919081019061226a565b6106f6565b6040516101dc9190612b8a565b60405180910390f35b6101ff60048036036101fa9190810190612105565b61099a565b60405161020c9190612f58565b60405180910390f35b61022f600480360361022a91908101906122a6565b610aa6565b60405161023f9493929190612b45565b60405180910390f35b610262600480360361025d91908101906120dc565b610c99565b005b61027e60048036036102799190810190612190565b610dde565b60405161028b9190612b8a565b60405180910390f35b6102ae60048036036102a991908101906120dc565b610fa9565b6040516102bb9190612f58565b60405180910390f35b6102de60048036036102d99190810190612001565b610fc1565b6040516102ec929190612bc0565b60405180910390f35b61030f600480360361030a9190810190612105565b610ff2565b60405161031c9190612b8a565b60405180910390f35b61033f600480360361033a91908101906120dc565b6110e2565b60405161034c9190612cfd565b60405180910390f35b61036f600480360361036a91908101906120dc565b61110f565b604051610380959493929190612c12565b60405180910390f35b6103a3600480360361039e91908101906122f5565b611152565b6040516103b09190612f58565b60405180910390f35b6103d360048036036103ce91908101906121cc565b611461565b6040516103e09190612cfd565b60405180910390f35b61040360048036036103fe9190810190612141565b6117c0565b6040516104169796959493929190612c65565b60405180910390f35b6104396004803603610434919081019061226a565b611ae3565b60405161044893929190612b0e565b60405180910390f35b61046b6004803603610466919081019061202a565b611b47565b6040516104789190612b8a565b60405180910390f35b60026020528060005260406000206000915090508060000160009054906101000a900473ffffffffffffffffffffffffffffffffffffffff16908060010154908060020154908060030160009054906101000a900473ffffffffffffffffffffffffffffffffffffffff16908060040154908060050154908060060160009054906101000a900460ff16905087565b600080600080600080600460008873ffffffffffffffffffffffffffffffffffffffff1673ffffffffffffffffffffffffffffffffffffffff16815260200190815260200160002090506000600360008a81526020019081526020016000209050600115158260010160009054906101000a900460ff161515146105c9576040517f08c379a00000000000000000000000000000000000000000000000000000000081526004016105c090612ed8565b60405180910390fd5b600081600201541415610611576040517f08c379a000000000000000000000000000000000000000000000000000000000815260040161060890612df8565b60405180910390fd5b80600001548160010154826002015483600301548460040160009054906101000a900460ff169650965096509650965050509295509295909350565b600080600460008473ffffffffffffffffffffffffffffffffffffffff1673ffffffffffffffffffffffffffffffffffffffff1681526020019081526020016000209050600115158160010160009054906101000a900460ff161515146106e9576040517f08c379a00000000000000000000000000000000000000000000000000000000081526004016106e090612e78565b60405180910390fd5b8060000154915050919050565b60008060026000858152602001908152602001600020905060006001600086815260200190815260200160002090508482600201541461076b576040517f08c379a000000000000000000000000000000000000000000000000000000000815260040161076290612d18565b60405180910390fd5b3373ffffffffffffffffffffffffffffffffffffffff168260000160009054906101000a900473ffffffffffffffffffffffffffffffffffffffff1673ffffffffffffffffffffffffffffffffffffffff16146107fd576040517f08c379a00000000000000000000000000000000000000000000000000000000081526004016107f490612e18565b60405180910390fd5b6000600281111561080a57fe5b8260060160009054906101000a900460ff16600281111561082757fe5b14610867576040517f08c379a000000000000000000000000000000000000000000000000000000000815260040161085e90612db8565b60405180910390fd5b60018260060160006101000a81548160ff0219169083600281111561088857fe5b021790555080848154811061089957fe5b906000526020600020906003020160000160009054906101000a900473ffffffffffffffffffffffffffffffffffffffff166002600087815260200190815260200160002060030160006101000a81548173ffffffffffffffffffffffffffffffffffffffff021916908373ffffffffffffffffffffffffffffffffffffffff16021790555080848154811061092b57fe5b90600052602060002090600302016002015460026000878152602001908152602001600020600401819055507f0fa967e5a697cd5b1a32e3ed8e2a5b983caf2ae1bb54e8fe37fae071347e8fea856040516109869190612ba5565b60405180910390a160019250505092915050565b600080600260008581526020019081526020016000209050838160020154146109f8576040517f08c379a00000000000000000000000000000000000000000000000000000000081526004016109ef90612d18565b60405180910390fd5b8273ffffffffffffffffffffffffffffffffffffffff168160000160009054906101000a900473ffffffffffffffffffffffffffffffffffffffff1673ffffffffffffffffffffffffffffffffffffffff1614610a8a576040517f08c379a0000000000000000000000000000000000000000000000000000000008152600401610a8190612f38565b60405180910390fd5b6000808581526020019081526020016000205491505092915050565b60008060008060006002600089815260200190815260200160002090506000600160008a8152602001908152602001600020905088826002015414610b20576040517f08c379a0000000000000000000000000000000000000000000000000000000008152600401610b1790612d18565b60405180910390fd5b8673ffffffffffffffffffffffffffffffffffffffff168260000160009054906101000a900473ffffffffffffffffffffffffffffffffffffffff1673ffffffffffffffffffffffffffffffffffffffff1614610bb2576040517f08c379a0000000000000000000000000000000000000000000000000000000008152600401610ba990612f38565b60405180910390fd5b6000600160008b81526020019081526020016000208054905011610c0b576040517f08c379a0000000000000000000000000000000000000000000000000000000008152600401610c0290612d38565b60405180910390fd5b808881548110610c1757fe5b906000526020600020906003020160000160009054906101000a900473ffffffffffffffffffffffffffffffffffffffff16818981548110610c5557fe5b90600052602060002090600302016001015489838b81548110610c7457fe5b9060005260206000209060030201600201549550955095509550505093509350935093565b6000600460003373ffffffffffffffffffffffffffffffffffffffff1673ffffffffffffffffffffffffffffffffffffffff16815260200190815260200160002090506000602060ff1611610d23576040517f08c379a0000000000000000000000000000000000000000000000000000000008152600401610d1a90612d98565b60405180910390fd5b600015158160010160009054906101000a900460ff16151514610d7b576040517f08c379a0000000000000000000000000000000000000000000000000000000008152600401610d7290612f18565b60405180910390fd5b81816000018190555060018160010160006101000a81548160ff0219169083151502179055507fe8e68cef1c3a761ed7be7e8463a375f27f7bc335e51824223cacce636ec5c3fe3383604051610dd2929190612a76565b60405180910390a15050565b60008060026000848152602001908152602001600020905082816002015414610e3c576040517f08c379a0000000000000000000000000000000000000000000000000000000008152600401610e3390612d18565b60405180910390fd5b3373ffffffffffffffffffffffffffffffffffffffff168160030160009054906101000a900473ffffffffffffffffffffffffffffffffffffffff1673ffffffffffffffffffffffffffffffffffffffff1614610ece576040517f08c379a0000000000000000000000000000000000000000000000000000000008152600401610ec590612dd8565b60405180910390fd5b60016002811115610edb57fe5b8160060160009054906101000a900460ff166002811115610ef857fe5b14610f38576040517f08c379a0000000000000000000000000000000000000000000000000000000008152600401610f2f90612d58565b60405180910390fd5b60028160060160006101000a81548160ff02191690836002811115610f5957fe5b02179055508381600501819055507f5cfc0037f79529279d288edea103e1e1d3f2a2b727bdf8113017043ea939488b83604051610f969190612ba5565b60405180910390a1600191505092915050565b60006020528060005260406000206000915090505481565b60046020528060005260406000206000915090508060000154908060010160009054906101000a900460ff16905082565b6000806002600085815260200190815260200160002090506001600281111561101757fe5b8160060160009054906101000a900460ff16600281111561103457fe5b14611074576040517f08c379a000000000000000000000000000000000000000000000000000000000815260040161106b90612d58565b60405180910390fd5b8273ffffffffffffffffffffffffffffffffffffffff168160030160009054906101000a900473ffffffffffffffffffffffffffffffffffffffff1673ffffffffffffffffffffffffffffffffffffffff1614156110d65760019150506110dc565b60009150505b92915050565b60006002600083815260200190815260200160002060060160009054906101000a900460ff169050919050565b60036020528060005260406000206000915090508060000154908060010154908060020154908060030154908060040160009054906101000a900460ff16905085565b600080600460003373ffffffffffffffffffffffffffffffffffffffff1673ffffffffffffffffffffffffffffffffffffffff16815260200190815260200160002090506000600260008b81526020019081526020016000209050600115158260010160009054906101000a900460ff16151514611205576040517f08c379a00000000000000000000000000000000000000000000000000000000081526004016111fc90612d78565b60405180910390fd5b6000600281111561121257fe5b8160060160009054906101000a900460ff16600281111561122f57fe5b1461126f576040517f08c379a000000000000000000000000000000000000000000000000000000000815260040161126690612e98565b60405180910390fd5b6000888888888860405160200161128a959493929190612a17565b6040516020818303038152906040528051906020012090506040518060a001604052808a8152602001898152602001888152602001878152602001861515815250600360008381526020019081526020016000206000820151816000015560208201518160010155604082015181600201556060820151816003015560808201518160040160006101000a81548160ff0219169083151502179055509050506000600160008d815260200190815260200160002060405180606001604052803373ffffffffffffffffffffffffffffffffffffffff1681526020018d63ffffffff168152602001848152509080600181540180825580915050906001820390600052602060002090600302016000909192909190915060008201518160000160006101000a81548173ffffffffffffffffffffffffffffffffffffffff021916908373ffffffffffffffffffffffffffffffffffffffff160217905550602082015181600101556040820151816002015550509050806000808e8152602001908152602001600020819055507fdb578ec7204282ed3ffcec84ef9d2ca9adda7fb0c0b707010bad5cce9f18f41f8c82604051611447929190612cd4565b60405180910390a180945050505050979650505050505050565b600080600460003373ffffffffffffffffffffffffffffffffffffffff1673ffffffffffffffffffffffffffffffffffffffff16815260200190815260200160002090506000600260008a81526020019081526020016000209050600115158260010160009054906101000a900460ff16151514611514576040517f08c379a000000000000000000000000000000000000000000000000000000000815260040161150b90612d78565b60405180910390fd5b888160020154141561155b576040517f08c379a000000000000000000000000000000000000000000000000000000000815260040161155290612eb8565b60405180910390fd5b60008888888888604051602001611576959493929190612a17565b6040516020818303038152906040528051906020012090506040518060a001604052808a8152602001898152602001888152602001878152602001861515815250600360008381526020019081526020016000206000820151816000015560208201518160010155604082015181600201556060820151816003015560808201518160040160006101000a81548160ff0219169083151502179055509050506040518060e001604052803373ffffffffffffffffffffffffffffffffffffffff1681526020018281526020018b81526020013373ffffffffffffffffffffffffffffffffffffffff1681526020018281526020018c81526020016000600281111561167d57fe5b815250600260008c815260200190815260200160002060008201518160000160006101000a81548173ffffffffffffffffffffffffffffffffffffffff021916908373ffffffffffffffffffffffffffffffffffffffff160217905550602082015181600101556040820151816002015560608201518160030160006101000a81548173ffffffffffffffffffffffffffffffffffffffff021916908373ffffffffffffffffffffffffffffffffffffffff1602179055506080820151816004015560a0820151816005015560c08201518160060160006101000a81548160ff0219169083600281111561176d57fe5b02179055509050507fc36b5a7833301a31fd0ae95ceeab5fda3f6a3aee8a8689bf06360711592a6a0f8b8b6040516117a6929190612be9565b60405180910390a160009350505050979650505050505050565b600080600080600080600080600460008a73ffffffffffffffffffffffffffffffffffffffff1673ffffffffffffffffffffffffffffffffffffffff16815260200190815260200160002090506000600260008d81526020019081526020016000209050600115158260010160009054906101000a900460ff1615151461187c576040517f08c379a000000000000000000000000000000000000000000000000000000000815260040161187390612ed8565b60405180910390fd5b6001600281111561188957fe5b8160060160009054906101000a900460ff1660028111156118a657fe5b10156118e7576040517f08c379a00000000000000000000000000000000000000000000000000000000081526004016118de90612ef8565b60405180910390fd5b600115158b151514156119e7578973ffffffffffffffffffffffffffffffffffffffff168160030160009054906101000a900473ffffffffffffffffffffffffffffffffffffffff1673ffffffffffffffffffffffffffffffffffffffff1614611986576040517f08c379a000000000000000000000000000000000000000000000000000000000815260040161197d90612e38565b60405180910390fd5b6000600360008360010154815260200190815260200160002090508160020154826005015482600001548360010154846002015485600301548660040160009054906101000a900460ff169950995099509950995099509950505050611ad6565b8973ffffffffffffffffffffffffffffffffffffffff168160000160009054906101000a900473ffffffffffffffffffffffffffffffffffffffff1673ffffffffffffffffffffffffffffffffffffffff1614611a79576040517f08c379a0000000000000000000000000000000000000000000000000000000008152600401611a7090612e58565b60405180910390fd5b6000600360008360040154815260200190815260200160002090508160020154826005015482600001548360010154846002015485600301548660040160009054906101000a900460ff1699509950995099509950995099505050505b9397509397509397909450565b60016020528160005260406000208181548110611afc57fe5b9060005260206000209060030201600091509150508060000160009054906101000a900473ffffffffffffffffffffffffffffffffffffffff16908060010154908060020154905083565b600080600460008b73ffffffffffffffffffffffffffffffffffffffff1673ffffffffffffffffffffffffffffffffffffffff16815260200190815260200160002090506000600260008a8152602001908152602001600020905060008888888888604051602001611bbd959493929190612a17565b604051602081830303815290604052805190602001209050600115158360010160009054906101000a900460ff16151514611c2d576040517f08c379a0000000000000000000000000000000000000000000000000000000008152600401611c2490612ed8565b60405180910390fd5b60006002811115611c3a57fe5b8260060160009054906101000a900460ff166002811115611c5757fe5b1015611c98576040517f08c379a0000000000000000000000000000000000000000000000000000000008152600401611c8f90612e98565b60405180910390fd5b600115158b15151415611e505760016002811115611cb257fe5b8260060160009054906101000a900460ff166002811115611ccf57fe5b1015611d10576040517f08c379a0000000000000000000000000000000000000000000000000000000008152600401611d0790612ef8565b60405180910390fd5b8b73ffffffffffffffffffffffffffffffffffffffff168260030160009054906101000a900473ffffffffffffffffffffffffffffffffffffffff1673ffffffffffffffffffffffffffffffffffffffff1614611da2576040517f08c379a0000000000000000000000000000000000000000000000000000000008152600401611d9990612e38565b60405180910390fd5b6040518060a001604052808a8152602001898152602001888152602001878152602001861515815250600360008381526020019081526020016000206000820151816000015560208201518160010155604082015181600201556060820151816003015560808201518160040160006101000a81548160ff02191690831515021790555090505080600260008c81526020019081526020016000206004018190555060019350505050611f8c565b8b73ffffffffffffffffffffffffffffffffffffffff168260000160009054906101000a900473ffffffffffffffffffffffffffffffffffffffff1673ffffffffffffffffffffffffffffffffffffffff1614611ee2576040517f08c379a0000000000000000000000000000000000000000000000000000000008152600401611ed990612e58565b60405180910390fd5b6040518060a001604052808a8152602001898152602001888152602001878152602001861515815250600360008381526020019081526020016000206000820151816000015560208201518160010155604082015181600201556060820151816003015560808201518160040160006101000a81548160ff02191690831515021790555090505080600260008c815260200190815260200160002060010181905550600193505050505b98975050505050505050565b600081359050611fa781613089565b92915050565b600081359050611fbc816130a0565b92915050565b600081359050611fd1816130b7565b92915050565b600081359050611fe6816130ce565b92915050565b600081359050611ffb816130e5565b92915050565b60006020828403121561201357600080fd5b600061202184828501611f98565b91505092915050565b600080600080600080600080610100898b03121561204757600080fd5b60006120558b828c01611f98565b98505060206120668b828c01611fad565b97505060406120778b828c01611fc2565b96505060606120888b828c01611fc2565b95505060806120998b828c01611fc2565b94505060a06120aa8b828c01611fc2565b93505060c06120bb8b828c01611fc2565b92505060e06120cc8b828c01611fad565b9150509295985092959890939650565b6000602082840312156120ee57600080fd5b60006120fc84828501611fc2565b91505092915050565b6000806040838503121561211857600080fd5b600061212685828601611fc2565b925050602061213785828601611f98565b9150509250929050565b60008060006060848603121561215657600080fd5b600061216486828701611fc2565b935050602061217586828701611fad565b925050604061218686828701611f98565b9150509250925092565b600080604083850312156121a357600080fd5b60006121b185828601611fc2565b92505060206121c285828601611fc2565b9150509250929050565b600080600080600080600060e0888a0312156121e757600080fd5b60006121f58a828b01611fc2565b97505060206122068a828b01611fc2565b96505060406122178a828b01611fc2565b95505060606122288a828b01611fc2565b94505060806122398a828b01611fc2565b93505060a061224a8a828b01611fc2565b92505060c061225b8a828b01611fad565b91505092959891949750929550565b6000806040838503121561227d57600080fd5b600061228b85828601611fc2565b925050602061229c85828601611fd7565b9150509250929050565b6000806000606084860312156122bb57600080fd5b60006122c986828701611fc2565b93505060206122da86828701611fd7565b92505060406122eb86828701611f98565b9150509250925092565b600080600080600080600060e0888a03121561231057600080fd5b600061231e8a828b01611fc2565b975050602061232f8a828b01611fec565b96505060406123408a828b01611fc2565b95505060606123518a828b01611fc2565b94505060806123628a828b01611fc2565b93505060a06123738a828b01611fc2565b92505060c06123848a828b01611fad565b91505092959891949750929550565b61239c81612ff9565b82525050565b6123ab81612f84565b82525050565b6123ba81612f96565b82525050565b6123d16123cc82612f96565b613041565b82525050565b6123e081612fa2565b82525050565b6123f76123f282612fa2565b613053565b82525050565b6124068161300b565b82525050565b6000612419601283612f73565b91507f53657276696365206e6f742065786973747300000000000000000000000000006000830152602082019050919050565b6000612459601d83612f73565b91507f4e6f206269647320666f722072657175657374656420536572766963650000006000830152602082019050919050565b6000612499603583612f73565b91507f536572766963652077696e6e6572206e6f742063686f6f73656e2e205365727660008301527f6963653a204445504c4f594544206f72204f50454e00000000000000000000006020830152604082019050919050565b60006124ff603983612f73565b91507f4f70657261746f72206973206e6f7420726567697374657265642e2043616e2060008301527f6e6f74206269642e20506c656173652072656769737465722e000000000000006020830152604082019050919050565b6000612565601183612f73565b91507f4e616d65206973206e6f742076616c69640000000000000000000000000000006000830152602082019050919050565b60006125a5602383612f73565b91507f5365727669636520616e6e6f756e63656d656e7420616c726561647920636c6f60008301527f73656400000000000000000000000000000000000000000000000000000000006020830152604082019050919050565b600061260b602c83612f73565b91507f4f6e6c7920736572766963652070726f76696465722063616e206465706c6f7960008301527f20746865207365727669636500000000000000000000000000000000000000006020830152604082019050919050565b6000612671601383612f73565b91507f456e64706f696e74206e6f7420657869737473000000000000000000000000006000830152602082019050919050565b60006126b1602f83612f73565b91507f4f6e6c7920736572766963652063726561746f722063616e20636c6f7365207460008301527f686520616e6e6f756e63656d656e7400000000000000000000000000000000006020830152604082019050919050565b6000612717601b83612f73565b91507f5468697320646f6d61696e206973206e6f7420612077696e6e657200000000006000830152602082019050919050565b6000612757601c83612f73565b91507f5468697320646f6d61696e206973206e6f7420612063726561746f72000000006000830152602082019050919050565b6000612797603e83612f73565b91507f4f70657261746f72206973206e6f74207265676973746572656420776974682060008301527f7468697320616464726573732e20506c656173652072656769737465722e00006020830152604082019050919050565b60006127fd601f83612f73565b91507f5365727669636520697320636c6f736564206f72206e6f7420657869737473006000830152602082019050919050565b600061283d602683612f73565b91507f5365727669636520494420666f72206f70657261746f7220616c72656164792060008301527f65786973747300000000000000000000000000000000000000000000000000006020830152604082019050919050565b60006128a3603f83612f73565b91507f4f70657261746f72206973206e6f7420726567697374657265642e2043616e2060008301527f6e6f74206c6f6f6b20696e746f2e20506c656173652072656769737465722e006020830152604082019050919050565b6000612909602383612f73565b91507f53657276696365206973207374696c6c206f70656e206f72206e6f742065786960008301527f73747300000000000000000000000000000000000000000000000000000000006020830152604082019050919050565b600061296f601b83612f73565b91507f4f70657261746f7220616c7265616479207265676973746572656400000000006000830152602082019050919050565b60006129af603283612f73565b91507f4f6e6c7920736572766963652063726561746f722063616e206c6f6f6b20696e60008301527f746f2074686520696e666f726d6174696f6e00000000000000000000000000006020830152604082019050919050565b612a1181612fdf565b82525050565b6000612a2382886123e6565b602082019150612a3382876123e6565b602082019150612a4382866123e6565b602082019150612a5382856123e6565b602082019150612a6382846123c0565b6001820191508190509695505050505050565b6000604082019050612a8b6000830185612393565b612a9860208301846123d7565b9392505050565b600060e082019050612ab4600083018a6123a2565b612ac160208301896123d7565b612ace60408301886123d7565b612adb60608301876123a2565b612ae860808301866123d7565b612af560a08301856123d7565b612b0260c08301846123fd565b98975050505050505050565b6000606082019050612b2360008301866123a2565b612b306020830185612a08565b612b3d60408301846123d7565b949350505050565b6000608082019050612b5a60008301876123a2565b612b676020830186612a08565b612b746040830185612a08565b612b8160608301846123d7565b95945050505050565b6000602082019050612b9f60008301846123b1565b92915050565b6000602082019050612bba60008301846123d7565b92915050565b6000604082019050612bd560008301856123d7565b612be260208301846123b1565b9392505050565b6000604082019050612bfe60008301856123d7565b612c0b60208301846123d7565b9392505050565b600060a082019050612c2760008301886123d7565b612c3460208301876123d7565b612c4160408301866123d7565b612c4e60608301856123d7565b612c5b60808301846123b1565b9695505050505050565b600060e082019050612c7a600083018a6123d7565b612c8760208301896123d7565b612c9460408301886123d7565b612ca160608301876123d7565b612cae60808301866123d7565b612cbb60a08301856123d7565b612cc860c08301846123b1565b98975050505050505050565b6000604082019050612ce960008301856123d7565b612cf66020830184612a08565b9392505050565b6000602082019050612d1260008301846123fd565b92915050565b60006020820190508181036000830152612d318161240c565b9050919050565b60006020820190508181036000830152612d518161244c565b9050919050565b60006020820190508181036000830152612d718161248c565b9050919050565b60006020820190508181036000830152612d91816124f2565b9050919050565b60006020820190508181036000830152612db181612558565b9050919050565b60006020820190508181036000830152612dd181612598565b9050919050565b60006020820190508181036000830152612df1816125fe565b9050919050565b60006020820190508181036000830152612e1181612664565b9050919050565b60006020820190508181036000830152612e31816126a4565b9050919050565b60006020820190508181036000830152612e518161270a565b9050919050565b60006020820190508181036000830152612e718161274a565b9050919050565b60006020820190508181036000830152612e918161278a565b9050919050565b60006020820190508181036000830152612eb1816127f0565b9050919050565b60006020820190508181036000830152612ed181612830565b9050919050565b60006020820190508181036000830152612ef181612896565b9050919050565b60006020820190508181036000830152612f11816128fc565b9050919050565b60006020820190508181036000830152612f3181612962565b9050919050565b60006020820190508181036000830152612f51816129a2565b9050919050565b6000602082019050612f6d6000830184612a08565b92915050565b600082825260208201905092915050565b6000612f8f82612fbf565b9050919050565b60008115159050919050565b6000819050919050565b6000819050612fba8261307c565b919050565b600073ffffffffffffffffffffffffffffffffffffffff82169050919050565b6000819050919050565b600063ffffffff82169050919050565b60006130048261301d565b9050919050565b600061301682612fac565b9050919050565b60006130288261302f565b9050919050565b600061303a82612fbf565b9050919050565b600061304c8261305d565b9050919050565b6000819050919050565b60006130688261306f565b9050919050565b60008160f81b9050919050565b6003811061308657fe5b50565b61309281612f84565b811461309d57600080fd5b50565b6130a981612f96565b81146130b457600080fd5b50565b6130c081612fa2565b81146130cb57600080fd5b50565b6130d781612fdf565b81146130e257600080fd5b50565b6130ee81612fe9565b81146130f957600080fd5b5056fea365627a7a723158201c11f89b8ace1849d4ff3f9b31ef546b5bf7148deeea49be2be6ea5c7e42c44d6c6578706572696d656e74616cf564736f6c63430005100040",
  "source": "pragma solidity >=0.4.21 <0.7.0;\npragma experimental ABIEncoderV2;\n\ncontract Federation {\n\n    enum ServiceState {Open, Closed, Deployed}\n    struct Operator {\n        bytes32 name;\n        bool registered;\n    }\n\n    struct Endpoint {\n        bytes32 uuid_1;\n        bytes32 uuid_2;\n        bytes32 name;\n        bytes32 net_type;\n        bool is_mgmt;\n    }\n\n    struct Service {\n        address creator;\n        bytes32 endpoint_consumer;\n        bytes32 id;\n        address provider;\n        bytes32 endpoint_provider;\n        bytes32 req_info;\n        ServiceState state;\n    }\n\n    struct Bid {\n        address bid_address;\n        uint price;\n        bytes32 endpoint_provider;\n    }\n\n    mapping(bytes32 => uint) public bidCount;\n    mapping(bytes32 => Bid[]) public bids;\n    mapping(bytes32 => Service) public service;\n    mapping(bytes32 => Endpoint) public endpoints;\n    mapping(address => Operator) public operator;\n\n    event OperatorRegistered(address operator, bytes32 name);\n    event ServiceAnnouncement(bytes32 requirements, bytes32 id);\n    event NewBid(bytes32 _id, uint256 max_bid_index);\n    event ServiceAnnouncementClosed(bytes32 _id);\n    event ServiceDeployedEvent(bytes32 _id);\n\n    function addOperator(bytes32 name) public {\n        Operator storage current_operator = operator[msg.sender];\n        require(name.length > 0, \"Name is not valid\");\n        require(current_operator.registered == false, \"Operator already registered\");\n        current_operator.name = name;\n        current_operator.registered = true;\n        emit OperatorRegistered(msg.sender, name);\n    }\n\n    function getOperatorInfo(address op_address) public view returns (bytes32 name) {\n        Operator storage current_operator = operator[op_address];\n        require(current_operator.registered == true, \"Operator is not registered with this address. Please register.\");\n        return current_operator.name;\n\t}\n\n    function AnnounceService(bytes32 _requirements, bytes32 _id,\n                            bytes32 endpoint_uuid_1, bytes32 endpoint_uuid_2, bytes32 endpoint_name,\n                            bytes32 endpoint_net_type, bool endpoint_is_mgmt) public returns(ServiceState) {\n        Operator storage current_operator = operator[msg.sender];\n        Service storage current_service = service[_id];\n        require(current_operator.registered == true, \"Operator is not registered. Can not bid. Please register.\");\n        require(current_service.id != _id, \"Service ID for operator already exists\");\n        bytes32 endpoint_keccak = keccak256(abi.encodePacked(endpoint_uuid_1,\n                                 endpoint_uuid_2, endpoint_name, endpoint_net_type, endpoint_is_mgmt));\n        endpoints[endpoint_keccak] = Endpoint(endpoint_uuid_1, endpoint_uuid_2, endpoint_name, endpoint_net_type, endpoint_is_mgmt);\n        service[_id] = Service(msg.sender, endpoint_keccak, _id, msg.sender,  endpoint_keccak, _requirements, ServiceState.Open);\n        emit ServiceAnnouncement(_requirements, _id);\n        return ServiceState.Open;\n    }\n\n    function UpdateEndpoint(address call_address, bool provider, bytes32 _id,\n                            bytes32 endpoint_uuid_1, bytes32 endpoint_uuid_2, bytes32 endpoint_name,\n                            bytes32 endpoint_net_type, bool endpoint_is_mgmt) public returns (bool) {\n        Operator storage current_operator = operator[call_address];\n        Service storage current_service = service[_id];\n        bytes32 endpoint_keccak = keccak256(abi.encodePacked(endpoint_uuid_1,\n                                 endpoint_uuid_2, endpoint_name, endpoint_net_type, endpoint_is_mgmt));\n        require(current_operator.registered == true, \"Operator is not registered. Can not look into. Please register.\");\n        require(current_service.state >= ServiceState.Open, \"Service is closed or not exists\");\n        if(provider == true) {\n                require(current_service.state >= ServiceState.Closed, \"Service is still open or not exists\");\n                require(current_service.provider == call_address, \"This domain is not a winner\");\n                endpoints[endpoint_keccak] = Endpoint(endpoint_uuid_1, endpoint_uuid_2, endpoint_name, endpoint_net_type, endpoint_is_mgmt);\n                service[_id].endpoint_provider = endpoint_keccak;\n                return true;\n        }\n        else {\n                require(current_service.creator == call_address, \"This domain is not a creator\");\n                endpoints[endpoint_keccak] = Endpoint(endpoint_uuid_1, endpoint_uuid_2, endpoint_name, endpoint_net_type, endpoint_is_mgmt);\n                service[_id].endpoint_consumer = endpoint_keccak;\n                return true;\n        }\n    }\n        \n    function GetServiceState(bytes32 _id) public view returns (ServiceState) {\n        // Service storage current_service = service[_id];\n        // require(service[_id].creator == _creator, \"Service not exists\");\n        // assert(service[_id].state == ServiceState.Open);\n        return service[_id].state;\n    }\n\n    function GetServiceInfo(bytes32 _id, bool provider, address call_address)\n    public view returns (bytes32, bytes32, bytes32, bytes32, bytes32, bytes32, bool) {\n        Operator storage current_operator = operator[call_address];\n        Service storage current_service = service[_id];\n        \n        require(current_operator.registered == true, \"Operator is not registered. Can not look into. Please register.\");\n        require(current_service.state >= ServiceState.Closed, \"Service is still open or not exists\");\n        if(provider == true) {\n                require(current_service.provider == call_address, \"This domain is not a winner\");\n                Endpoint storage current_endpoint = endpoints[current_service.endpoint_consumer];\n                return(current_service.id, current_service.req_info,\n                       current_endpoint.uuid_1, current_endpoint.uuid_2,\n                       current_endpoint.name, current_endpoint.net_type,\n                       current_endpoint.is_mgmt);\n        }\n        else {\n                require(current_service.creator == call_address, \"This domain is not a creator\");\n                Endpoint storage current_endpoint = endpoints[current_service.endpoint_provider];\n                return(current_service.id, current_service.req_info,\n                       current_endpoint.uuid_1, current_endpoint.uuid_2,\n                       current_endpoint.name, current_endpoint.net_type,\n                       current_endpoint.is_mgmt);\n            }\n    }\n    \n      function GetEndpoint(bytes32 endpoint_id, address call_address)\n      public view returns (bytes32, bytes32, bytes32, bytes32, bool) {\n        Operator storage current_operator = operator[call_address];\n        Endpoint storage current_endpoint = endpoints[endpoint_id];\n        require(current_operator.registered == true, \"Operator is not registered. Can not look into. Please register.\");\n        require(current_endpoint.name != \"\", \"Endpoint not exists\");\n        return(current_endpoint.uuid_1, current_endpoint.uuid_2,\n               current_endpoint.name, current_endpoint.net_type, current_endpoint.is_mgmt);\n    }\n\n    function PlaceBid(bytes32 _id, uint32 _price,\n                     bytes32 endpoint_uuid_1, bytes32 endpoint_uuid_2, bytes32 endpoint_name,\n                     bytes32 endpoint_net_type, bool endpoint_is_mgmt) public returns (uint256) {\n        Operator storage current_operator = operator[msg.sender];\n        Service storage current_service = service[_id];\n        require(current_operator.registered == true, \"Operator is not registered. Can not bid. Please register.\");\n        require(current_service.state == ServiceState.Open, \"Service is closed or not exists\");\n        bytes32 endpoint_keccak = keccak256(abi.encodePacked(endpoint_uuid_1,\n                                 endpoint_uuid_2, endpoint_name, endpoint_net_type, endpoint_is_mgmt));\n        endpoints[endpoint_keccak] = Endpoint(endpoint_uuid_1, endpoint_uuid_2, endpoint_name, endpoint_net_type, endpoint_is_mgmt);\n        uint256 max_bid_index = bids[_id].push(Bid(msg.sender, _price, endpoint_keccak));\n        // uint256 max_bid_index = 0;\n        // uint256 max_bid_index = bids[_id].push(Bid(msg.sender, _price, _endpoint));\n        bidCount[_id] = max_bid_index;\n        emit NewBid(_id, max_bid_index);\n        return max_bid_index;\n    }\n\n    function GetBidCount(bytes32 _id, address _creator) public view returns (uint256) {\n        Service storage current_service = service[_id];\n        require(current_service.id == _id, \"Service not exists\");\n        require(current_service.creator == _creator, \"Only service creator can look into the information\");\n        return bidCount[_id];\n    }\n\n    function GetBid(bytes32 _id, uint256 bider_index, address _creator) public view returns (address, uint, uint256, bytes32) {\n        Service storage current_service = service[_id];\n        Bid[] storage current_bid_pool = bids[_id];\n        require(current_service.id == _id, \"Service not exists\");\n        require(current_service.creator == _creator, \"Only service creator can look into the information\");\n        require(bids[_id].length > 0, \"No bids for requested Service\");\n        return (current_bid_pool[bider_index].bid_address, current_bid_pool[bider_index].price,\n               bider_index, current_bid_pool[bider_index].endpoint_provider);\n        // return bids[_id];\n    }\n\n    function ChooseProvider(bytes32 _id, uint256 bider_index) public returns (bool) {\n        Service storage current_service = service[_id];\n        Bid[] storage current_bid_pool = bids[_id];\n        require(current_service.id == _id, \"Service not exists\");\n        require(current_service.creator == msg.sender, \"Only service creator can close the announcement\");\n        require(current_service.state == ServiceState.Open, \"Service announcement already closed\");\n\n        current_service.state = ServiceState.Closed;\n        // address bid_address_= current_bid_pool[bider_index].bid_address;\n        service[_id].provider = current_bid_pool[bider_index].bid_address;\n        service[_id].endpoint_provider = current_bid_pool[bider_index].endpoint_provider;\n        emit ServiceAnnouncementClosed(_id);\n        return true;\n        // return (current_bid_pool[bider_index].bid_address, current_bid_pool[bider_index].price);\n    }\n\n    function isWinner(bytes32 _id, address _winner) public view returns (bool) {\n        Service storage current_service = service[_id];\n        require(current_service.state == ServiceState.Closed, \"Service winner not choosen. Service: DEPLOYED or OPEN\");\n        if(current_service.provider == _winner) {\n            return true;\n        }\n        else {\n            return false;\n        }\n    }\n\n    function ServiceDeployed(bytes32 info, bytes32 _id) public returns (bool) {\n        Service storage current_service = service[_id];\n        require(current_service.id == _id, \"Service not exists\");\n        require(current_service.provider == msg.sender, \"Only service provider can deploy the service\");\n        require(current_service.state == ServiceState.Closed, \"Service winner not choosen. Service: DEPLOYED or OPEN\");\n        current_service.state = ServiceState.Deployed;\n        current_service.req_info = info;\n        emit ServiceDeployedEvent(_id);\n        return true;\n    }\n\n\n}",
  "sourcePath": "/mnt/c/Users/user/Documents/5G-Growth/papers/Federation/Edge federation (Milan)/code/edge_federation/smart-contracts/contracts/Federation_edge.sol",
  "compiler": {
    "name": "solc",
    "version": "0.5.16+commit.9c3226ce.Emscripten.clang"
  },
  "schemaVersion": "3.0.23",
  "updatedAt": "2020-07-05T11:58:24.360Z",
  "networkType": "ethereum",
  "devdoc": {
    "methods": {}
  },
  "userdoc": {
    "methods": {}
  }
}